:1000000000308A001A280000223084008313000880
:10001000031917280630F800F701F70B0D28F80B25
:100020000C287B30F700F70B1328800B0A288A1165
:100030000A124128840183131F30830581308316FF
:100040009900A630980090308312980083161F14F0
:100050009F141F159F1107309C000108C7393838BD
:100060008100831281010108093C031833288101B2
:1000700083168613831286170430A100FA30A2007B
:100080000428A10B3E288316861383128613332877
:0200900063000B
:02400E00723FFF
:00000001FF
;PIC16F877A
