:1000000000308A0004280000840183131F30830518
:1000100083161F149F141F159F1107309C001F107B
:100020009F101F119F111F1383121F179F178316F5
:100030009F1783121F140030F8001F08C739780477
:100040009F00A630F700F70B232800001F151F198B
:10005000272883161E088312A0001E08A10008305E
:10006000F8001F08C73978049F00A630F700F70B87
:10007000372800001F151F193B2883161E088312FE
:10008000A2001E08A30023082102031C5228031DFE
:100090004D28200822020318522883168613831243
:1000A0008617562883168613831286131B2863002F
:02400E00723FFF
:00000001FF
;PIC16F877A
