:1000000000308A00DC2900000A108A100A118207D9
:1000100028340C34013406340A108A100A1182077D
:100020000C34563461346C346F34723420343134CF
:100030003A3400340A108A100A1182070A345634FE
:1000400061346C346F347234203432343A340034D6
:10005000323084008313000803193B280630F8006F
:10006000F701F70B3128F80B30287B30F700F70B3E
:100070003728800B2E280034390EF039F7000F3066
:10008000060577048600000006140330F700F70B1E
:100090004728061000348610F0308316860083123D
:1000A00006150000061400000608060E0F39B900F8
:1000B0000610000006145C285D2800000608060EE5
:1000C0000F39B80006100030831686008312390EEF
:1000D000F700F030F70577083804F8007808B80022
:1000E000B81B4C28361C86103618861400000611E2
:1000F00000000610370EB8000F30B8053808B900F8
:100100003C2037080F39B800B9003C2000340030DB
:100110008316860083128610061106100F30B20077
:1001200028200130AC002C08033C031C9F2803301E
:10013000B9003C200530B2002820AC0A93280230D8
:10014000B9003C20AC012C08033C031CB0282C084F
:100150000420AD00B6012D08B7004B20AC0AA3283F
:100160008A110A12F429F801F901F701FA0133089A
:10017000031DBD2832080319D7281030B40003101E
:10018000B00DB10DF70DFA0D33087A02031DCA2820
:1001900032087702031CD3283208F702031CFA0343
:1001A0003308FA020314F80DF90DB40BBF2800341C
:1001B00031080C3A0319E328063A0319EB28023AEE
:1001C000031901290629B6010130B7004B2002307E
:1001D000B20028200C290130B2000230B300330BEA
:1001E000F228F5284030B400F628B401013032027C
:1001F000B40734088038B500B6013508B7004B2085
:100200000C29B6011030B7004B200C290130B60084
:100210003108B7004B200C2900342D08B1002C0800
:10022000B000B3010A30B200B3207708303EA60018
:100230002D08B1002C08B000B3010A30B200B32081
:100240007908AD007808AC002D08B1002C08B0008A
:10025000B3010A30B200B3207708303EA5002D0864
:10026000B1002C08B000B3010A30B200B320790805
:10027000AD007808AC002D08B1002C08B000B30127
:100280000A30B200B3207708303EA4002D08B10038
:100290002C08B000B3010A30B200B3207908AD00D9
:1002A0007808AC002D08B1002C08B000B3010A306A
:1002B000B200B3207708303EAB002F08B1002E0803
:1002C000B000B3010A30B200B3207708303EA90075
:1002D0002F08B1002E08B000B3010A30B200B320DD
:1002E0007908AF007808AE002F08B1002E08B000E2
:1002F000B3010A30B200B3207708303EA8002F08BF
:10030000B1002E08B000B3010A30B200B320790862
:10031000AF007808AE002F08B1002E08B000B3017E
:100320000A30B200B3207708303EA7002F08B10092
:100330002E08B000B3010A30B200B3207908AF0034
:100340007808AE002F08B1002E08B000B3010A30C3
:10035000B200B3207708303EAA00B00130080C206C
:1003600000380319B729B00AB100D820AE292B08EC
:10037000B100D8202408B100D8202508B100D82029
:100380002608B100D820B00130081A20003803191F
:10039000CD29B00AB100D820C4292A08B100D8203C
:1003A0002708B100D8202808B100D8202908B100BA
:1003B000D8208A110A12282A840183131F3083054A
:1003C00083161F149F141F159F1107309C001F10C8
:1003D0009F101F119F111F1383121F179F17831642
:1003E0009F1783121F1487280030F8001F08C73991
:1003F00078049F00A630F700F70BFC2900001F15BA
:100400001F19002A83161E088312A0001E08A100CF
:100410000830F8001F08C73978049F00A630F7009D
:10042000F70B102A00001F151F19142A83161E0827
:100430008312A2001E08A3006430B2002820210805
:10044000AD002008AC002308AF002208AE000D2943
:04045000F429630028
:02400E00723FFF
:00000001FF
;PIC16F877A
