:1000000000308A0018280000213084008313000883
:10001000031917280630F800F701F70B0D28F80B25
:100020000C287B30F700F70B1328800B0A280034CC
:10003000840183131F308305813083169900A63015
:10004000980090308312980083161F149F141F1578
:100050009F1107309C0088178312881B3228831653
:100060002B288312831688178312881F3E28831635
:100070008613831286176430A10004208316881724
:100080008312881F3E28831688178312881F4F28E3
:1000900083168613831286136430A100042083160E
:0400A0002B286300A6
:02400E00723FFF
:00000001FF
;PIC16F877A
