:1000000000308A0004280000840183131F30830518
:1000100083161F149F141F159F1107309C00FF307B
:100020008312A00083161F109F101F119F111F1312
:1000300083121F179F1783169F1783121F140030F8
:10004000F80004389200FF308316920083122011CA
:10005000200883168700831207110C3097000030A8
:10006000F8001F08C73978049F00A630F700F70B87
:10007000372800001F151F193B2883161E088312FE
:10008000A1001E08A200A20CA10CA20CA10CA20CA3
:1000900021089500A20C220C3039F7001708CF393F
:0800A000770497002F2863008C
:02400E00723FFF
:00000001FF
;PIC16F877A
