:1000000000308A001A280000223084008313000880
:10001000031917280630F800F701F70B0D28F80B25
:100020000C287B30F700F70B1328800B0A288A1165
:100030000A123A28840183131F3083058130831606
:100040009900A630980090308312980083161F14F0
:100050009F141F159F1107309C0080308312A00051
:10006000831686018312200886000310A00C6430DA
:10007000A2000428200B3E288030A0003028630016
:02400E00723FFF
:00000001FF
;PIC16F877A
