:1000000000308A001828000027308400831300087D
:10001000031917280230A100A001A00B0D28A10B85
:100020000C289730A000A00B1328800B0A2800345E
:10003000840183131F308305713083168F00831270
:100040001F1383161F109F101F119F11073083125B
:10005000990083160511831205150430A600FA30A5
:10006000A7000420A60B2F28831605118312051163
:100070000430A600FA30A7000420A60B3A2829284D
:0200800063001B
:02400E00C43FAD
:00000001FF
;PIC12F683
