:1000000000308A0004280000FF238316900000308F
:100010008A001E28273084008313000803191D2836
:100020000230A100A001A00B1328A10B12289730C9
:10003000A000A00B1928800B102800348401831322
:100040001F3083051F1383161F109F101F119F1150
:1000500007308312990083160511831205150430A9
:10006000A600FA30A7000A20A60B31288316051136
:10007000831205110430A600FA30A7000A20A60B4F
:060080003C282B28630060
:02400E00C431BB
:00000001FF
;PIC12F675
