:1000000000308A0004280000FF238316900000308F
:100010008A001D2827308400000803191C2802309C
:10002000A100A001A00B1228A10B11289730A0005D
:10003000A00B1828800B0F28003484011F30830583
:100040001F1383161F109F101F119F11073083125B
:10005000990083160510831205140430A600FA30A7
:10006000A7000A20A60B2F2883160510831205105F
:100070000430A600FA30A7000A20A60B3A288316FF
:100080008510831285140430A600FA30A7000A20D8
:10009000A60B452883168510831285100430A60010
:1000A000FA30A7000A20A60B5028831605128312E7
:1000B00005160430A600FA30A7000A20A60B5B281C
:1000C00083160512831205120430A600FA30A70029
:0A00D0000A20A60B66282928630009
:02400E00C431BB
:00000001FF
;PIC12F675
;CRC=51B4  CREATED="23-jun-20 04:56"
