:1000000000308A0018280000223084008313000882
:10001000031917280230F800F701F70B0D28F80B29
:100020000C289730F700F70B1328800B0A280034B0
:10003000840183131F308305713083168F000317EB
:100040000908C039890003131F129F1200300317DB
:100050008800073083128700FF30880089018316EB
:10006000031397010317850183120313201220083D
:1000700083168700FF308312A000831608118312B5
:1000800008150430A100FA30A2000420A10B432877
:1000900083160811831208110430A100FA30A2005F
:0A00A0000420A10B4E283D28630048
:04400E00C42FFF3F7D
:00000001FF
;PIC16F887
